{
  "transactions": [
    {
      "hash": "0xc55255452593dae4454488e9101a027a387ec3258267d44cf76b5e40440b3d49",
      "transactionType": "CALL",
      "contractName": null,
      "contractAddress": "0x8734d6f16e59f14973fb5170e0c9a1d511ea1ad1",
      "function": "repay(uint256)",
      "arguments": [
        "1000000000000000000"
      ],
      "transaction": {
        "from": "0x47ef3bf350f70724f2fd34206990cde9c3a6b6f0",
        "to": "0x8734d6f16e59f14973fb5170e0c9a1d511ea1ad1",
        "gas": "0xfb05",
        "value": "0x0",
        "input": "0x371fd8e60000000000000000000000000000000000000000000000000de0b6b3a7640000",
        "nonce": "0xe0",
        "chainId": "0xaa36a7"
      },
      "additionalContracts": [],
      "isFixedGasLimit": false
    }
  ],
  "receipts": [
    {
      "status": "0x1",
      "cumulativeGasUsed": "0xd38638",
      "logs": [
        {
          "address": "0x8734d6f16e59f14973fb5170e0c9a1d511ea1ad1",
          "topics": [
            "0xddf252ad1be2c89b69c2b068fc378daa952ba7f163c4a11628f55a4df523b3ef",
            "0x00000000000000000000000047ef3bf350f70724f2fd34206990cde9c3a6b6f0",
            "0x0000000000000000000000000000000000000000000000000000000000000000"
          ],
          "data": "0x0000000000000000000000000000000000000000000000000de0b6b3a7640000",
          "blockHash": "0x9e1f21b1425d9feba163fee7433c7f2f20a9995b30e6f059b542fc5559ad8215",
          "blockNumber": "0x832123",
          "transactionHash": "0xc55255452593dae4454488e9101a027a387ec3258267d44cf76b5e40440b3d49",
          "transactionIndex": "0xf7",
          "logIndex": "0x68",
          "removed": false
        },
        {
          "address": "0x8734d6f16e59f14973fb5170e0c9a1d511ea1ad1",
          "topics": [
            "0x78f5f4fe573a0f848b230b1151919d737f07fd52424347dbd007dd57fb906e00",
            "0x00000000000000000000000047ef3bf350f70724f2fd34206990cde9c3a6b6f0"
          ],
          "data": "0x000000000000000000000000000000000000000000000000016345785d8a0000000000000000000000000000000000000000000000000008a1515f2119bbbaaa",
          "blockHash": "0x9e1f21b1425d9feba163fee7433c7f2f20a9995b30e6f059b542fc5559ad8215",
          "blockNumber": "0x832123",
          "transactionHash": "0xc55255452593dae4454488e9101a027a387ec3258267d44cf76b5e40440b3d49",
          "transactionIndex": "0xf7",
          "logIndex": "0x69",
          "removed": false
        }
      ],
      "logsBloom": "0x00000000020000000000000000000000000100000000000000000000000000000400000000000000000000000000000000000000000000000000000000000000000000000000000000000008000000000000000000000000000000000000000000004000020000000000000000000800000000000000000000000010000004000000000000000000000000020000000000000000000000000000000000000000000000000000002000000000000000000000000000000000000000000000000000000002000000000000000000000000000000000000000000000000000020000000020000000000000000800000000000000000000000000000000000000000",
      "type": "0x2",
      "transactionHash": "0xc55255452593dae4454488e9101a027a387ec3258267d44cf76b5e40440b3d49",
      "transactionIndex": "0xf7",
      "blockHash": "0x9e1f21b1425d9feba163fee7433c7f2f20a9995b30e6f059b542fc5559ad8215",
      "blockNumber": "0x832123",
      "gasUsed": "0xb5bd",
      "effectiveGasPrice": "0xf429c",
      "from": "0x47ef3bf350f70724f2fd34206990cde9c3a6b6f0",
      "to": "0x8734d6f16e59f14973fb5170e0c9a1d511ea1ad1",
      "contractAddress": null
    }
  ],
  "libraries": [],
  "pending": [],
  "returns": {},
  "timestamp": 1750466953,
  "chain": 11155111,
  "commit": null
}